{
  "_format": "hh-sol-artifact-1",
  "contractName": "NFT",
  "sourceName": "contract/SimpleNft.sol",
  "abi": [
    {
      "inputs": [
        {
          "internalType": "address",
          "name": "_oldNftAddr",
          "type": "address"
        },
        {
          "internalType": "address",
          "name": "_newNftAddr",
          "type": "address"
        }
      ],
      "stateMutability": "nonpayable",
      "type": "constructor"
    },
    {
      "anonymous": false,
      "inputs": [
        {
          "indexed": true,
          "internalType": "address",
          "name": "previousOwner",
          "type": "address"
        },
        {
          "indexed": true,
          "internalType": "address",
          "name": "newOwner",
          "type": "address"
        }
      ],
      "name": "OwnershipTransferred",
      "type": "event"
    },
    {
      "inputs": [],
      "name": "newNftAddr",
      "outputs": [
        {
          "internalType": "address",
          "name": "",
          "type": "address"
        }
      ],
      "stateMutability": "view",
      "type": "function"
    },
    {
      "inputs": [],
      "name": "oldNftAddr",
      "outputs": [
        {
          "internalType": "address",
          "name": "",
          "type": "address"
        }
      ],
      "stateMutability": "view",
      "type": "function"
    },
    {
      "inputs": [],
      "name": "owner",
      "outputs": [
        {
          "internalType": "address",
          "name": "",
          "type": "address"
        }
      ],
      "stateMutability": "view",
      "type": "function"
    },
    {
      "inputs": [
        {
          "internalType": "bool",
          "name": "_state",
          "type": "bool"
        }
      ],
      "name": "pause",
      "outputs": [],
      "stateMutability": "nonpayable",
      "type": "function"
    },
    {
      "inputs": [],
      "name": "paused",
      "outputs": [
        {
          "internalType": "bool",
          "name": "",
          "type": "bool"
        }
      ],
      "stateMutability": "view",
      "type": "function"
    },
    {
      "inputs": [],
      "name": "renounceOwnership",
      "outputs": [],
      "stateMutability": "nonpayable",
      "type": "function"
    },
    {
      "inputs": [
        {
          "internalType": "address",
          "name": "_newNftAddr",
          "type": "address"
        }
      ],
      "name": "setNewNftAddress",
      "outputs": [],
      "stateMutability": "nonpayable",
      "type": "function"
    },
    {
      "inputs": [
        {
          "internalType": "address",
          "name": "_oldNftAddr",
          "type": "address"
        }
      ],
      "name": "setOldNftAddress",
      "outputs": [],
      "stateMutability": "nonpayable",
      "type": "function"
    },
    {
      "inputs": [
        {
          "internalType": "uint256",
          "name": "_tokenId",
          "type": "uint256"
        }
      ],
      "name": "swap",
      "outputs": [],
      "stateMutability": "nonpayable",
      "type": "function"
    },
    {
      "inputs": [
        {
          "internalType": "address",
          "name": "newOwner",
          "type": "address"
        }
      ],
      "name": "transferOwnership",
      "outputs": [],
      "stateMutability": "nonpayable",
      "type": "function"
    },
    {
      "inputs": [
        {
          "internalType": "uint256",
          "name": "_tokenId",
          "type": "uint256"
        }
      ],
      "name": "withdraw",
      "outputs": [],
      "stateMutability": "nonpayable",
      "type": "function"
    }
  ],
  "bytecode": "0x60806040526000805460ff60a01b1916905534801561001d57600080fd5b5060405161093338038061093383398101604081905261003c916101af565b61004c610047610065565b610069565b610055826100b9565b61005e81610123565b5050610216565b3390565b600080546001600160a01b038381166001600160a01b0319831681178455604051919092169283917f8be0079c531659141344cd1fd0a4f28419497f9722a3daafe3b4186f6b6457e09190a35050565b6100c1610065565b6001600160a01b03166100d2610184565b6001600160a01b0316146101015760405162461bcd60e51b81526004016100f8906101e1565b60405180910390fd5b600180546001600160a01b0319166001600160a01b0392909216919091179055565b61012b610065565b6001600160a01b031661013c610184565b6001600160a01b0316146101625760405162461bcd60e51b81526004016100f8906101e1565b600280546001600160a01b0319166001600160a01b0392909216919091179055565b6000546001600160a01b031690565b80516001600160a01b03811681146101aa57600080fd5b919050565b600080604083850312156101c1578182fd5b6101ca83610193565b91506101d860208401610193565b90509250929050565b6020808252818101527f4f776e61626c653a2063616c6c6572206973206e6f7420746865206f776e6572604082015260600190565b61070e806102256000396000f3fe608060405234801561001057600080fd5b50600436106100c95760003560e01c8063715018a611610081578063948382e41161005b578063948382e41461015f57806394b918de14610167578063f2fde38b1461017a576100c9565b8063715018a61461013c578063781d8bfc146101445780638da5cb5b14610157576100c9565b80634c272099116100b25780634c272099146100f65780634fc60640146101095780635c975abb14610127576100c9565b806302329a29146100ce5780632e1a7d4d146100e3575b600080fd5b6100e16100dc3660046105cb565b61018d565b005b6100e16100f13660046105eb565b61020e565b6100e161010436600461059d565b6102b6565b610111610324565b60405161011e9190610603565b60405180910390f35b61012f610333565b60405161011e919061063b565b6100e1610343565b6100e161015236600461059d565b61038e565b6101116103fc565b61011161040b565b6100e16101753660046105eb565b61041a565b6100e161018836600461059d565b6104cb565b61019561053c565b6001600160a01b03166101a66103fc565b6001600160a01b0316146101d55760405162461bcd60e51b81526004016101cc906106a3565b60405180910390fd5b60008054911515600160a01b027fffffffffffffffffffffff00ffffffffffffffffffffffffffffffffffffffff909216919091179055565b61021661053c565b6001600160a01b03166102276103fc565b6001600160a01b03161461024d5760405162461bcd60e51b81526004016101cc906106a3565b600254604051632142170760e11b81526001600160a01b03909116906342842e0e9061028190309033908690600401610617565b600060405180830381600087803b15801561029b57600080fd5b505af11580156102af573d6000803e3d6000fd5b5050505050565b6102be61053c565b6001600160a01b03166102cf6103fc565b6001600160a01b0316146102f55760405162461bcd60e51b81526004016101cc906106a3565b6002805473ffffffffffffffffffffffffffffffffffffffff19166001600160a01b0392909216919091179055565b6001546001600160a01b031681565b600054600160a01b900460ff1681565b61034b61053c565b6001600160a01b031661035c6103fc565b6001600160a01b0316146103825760405162461bcd60e51b81526004016101cc906106a3565b61038c6000610540565b565b61039661053c565b6001600160a01b03166103a76103fc565b6001600160a01b0316146103cd5760405162461bcd60e51b81526004016101cc906106a3565b6001805473ffffffffffffffffffffffffffffffffffffffff19166001600160a01b0392909216919091179055565b6000546001600160a01b031690565b6002546001600160a01b031681565b600054600160a01b900460ff161561043157600080fd5b600154604051632142170760e11b81526001600160a01b03909116906342842e0e9061046590339030908690600401610617565b600060405180830381600087803b15801561047f57600080fd5b505af1158015610493573d6000803e3d6000fd5b5050600254604051632142170760e11b81526001600160a01b0390911692506342842e0e915061028190309033908690600401610617565b6104d361053c565b6001600160a01b03166104e46103fc565b6001600160a01b03161461050a5760405162461bcd60e51b81526004016101cc906106a3565b6001600160a01b0381166105305760405162461bcd60e51b81526004016101cc90610646565b61053981610540565b50565b3390565b600080546001600160a01b0383811673ffffffffffffffffffffffffffffffffffffffff19831681178455604051919092169283917f8be0079c531659141344cd1fd0a4f28419497f9722a3daafe3b4186f6b6457e09190a35050565b6000602082840312156105ae578081fd5b81356001600160a01b03811681146105c4578182fd5b9392505050565b6000602082840312156105dc578081fd5b813580151581146105c4578182fd5b6000602082840312156105fc578081fd5b5035919050565b6001600160a01b0391909116815260200190565b6001600160a01b039384168152919092166020820152604081019190915260600190565b901515815260200190565b60208082526026908201527f4f776e61626c653a206e6577206f776e657220697320746865207a65726f206160408201527f6464726573730000000000000000000000000000000000000000000000000000606082015260800190565b6020808252818101527f4f776e61626c653a2063616c6c6572206973206e6f7420746865206f776e657260408201526060019056fea26469706673582212206ffec4ed790e94757e7505dd4c5697c7ede3bdd308c1eb09b7b15a47b437a90064736f6c63430008000033",
  "linkReferences": {},
  "deployedLinkReferences": {}
}